:100000000EC028C027C026C025C024C023C022C0DF
:1000100021C020C01FC01EC01DC01CC01BC0112499
:100020001FBECFE5D1E0DEBFCDBF10E0A0E6B0E05F
:10003000E8E3F5E002C005900D92A236B107D9F7CA
:1000400020E0A2E6B0E001C01D92A636B207E1F7BB
:10005000AAD070C2D5CF9C017695679540E180E02B
:1000600090E09695879520FF02C0860F971F3695E2
:1000700027954150B1F70895909165009F5F909347
:10008000650020916400211109C0691790F488234C
:1000900081F0C19A81E08093640009C0213049F465
:1000A000891738F4662329F0C198109264001092E1
:1000B0006500089580916300880F80936300B29B70
:1000C00003C081608093630081E090916300913070
:1000D00009F080E00895CF93DF93EC01BC01BBDF12
:1000E000BC01B9DFBC0176956795CE0196958795E1
:1000F000680F791F60957095809160009091610004
:1001000080599109A8DFCD2B11F48FEF9FEF20913B
:100110006200211103C02AE22A95F1F77091620072
:10012000672F609520E030E0AC01415F5F4F6717BB
:1001300081F0660FB39961602817390739F4C498C4
:1001400022E42A95F1F700C0C49A9A012F5F3F4F2D
:10015000EECF8091600090916100059621F430937C
:10016000610020936000809160009091610082178F
:10017000930728F40196909361008093600080912A
:100180006000909161002817390728F40197909337
:10019000610080936000809162008095809362008E
:1001A000DF91CF91089580E886BD88E086BD83EF1A
:1001B00091E00197F1F700C0000080E886BD82E081
:1001C00086BDC49A82E187BB80E090E084DF80E056
:1001D00090E081DFC12CD12C7601F7FC11C0C70162
:1001E000880F991F78DF6FE085E046DF63DF8111BC
:1001F00039C09AE9C90E9EE2D91EE11CF11CEDCF6F
:10020000C12CD12C7601F7FC10C08FEF9FEF63DF7C
:1002100060E081E031DF4EDF81113DC081E1C80E39
:100220008FE1D81EE11CF11CEECFCC24CA94DC2C4B
:10023000EC2C8FE7F82EC701880F991F4CDF65E083
:100240008FE01ADF9AE0C91A97EDD90A93EAE90A12
:10025000F10885E2C81689E2D8068CE5E8068FEF3A
:10026000F80649F7F7FE1EC080E090E034DF6FE546
:1002700085E002DF1FDF8823B9F3C12CD12C760182
:10028000F7FE26C08FEF9FEF26DF65E08FE5F4DEF7
:1002900011DF8823B9F3CC24CA94DC2CEC2C3FE783
:1002A000F32EE0CFC701880F991F15DF65E085E0C9
:1002B000E3DE00DF8111E4CFC701B601ADD02AE053
:1002C00037ED43E25CE417D07BD06B017C01CACFF1
:1002D000C701880F991FFFDE65E085E0CDDEEADE0D
:1002E0008111C0CF9CEEC91A91E5D90A98EBE90AB1
:1002F0009EEFF90AC5CF5058BB27AA270ED0E0C001
:10030000D1D030F0D6D020F031F49F3F11F41EF45C
:10031000C6C00EF4E095E7FBBCC0E92FE2D080F345
:10032000BA17620773078407950718F071F49EF5F2
:10033000FAC00EF4E0950B2EBA2FA02D0B01B901D7
:1003400090010C01CA01A0011124FF27591B99F04B
:10035000593F50F4503E68F11A16F040A22F232F57
:10036000342F4427585FF3CF469537952795A795A7
:10037000F0405395C9F77EF41F16BA0B620B730B4E
:10038000840BBAF09150A1F0FF0FBB1F661F771FBF
:10039000881FC2F70EC0BA0F621F731F841F48F474
:1003A000879577956795B795F7959E3F08F0B3CFFA
:1003B0009395880F08F09927EE0F979587950895E4
:1003C00098D088F09F5790F0B92F9927B751A0F097
:1003D000D1F0660F771F881F991F1AF0BA95C9F7D9
:1003E00012C0B13081F09FD0B1E008959CC0672F5A
:1003F000782F8827B85F39F0B93FCCF38695779589
:100400006795B395D9F73EF4909580957095619571
:100410007F4F8F4F9F4F0895E89409C097FB3EF49C
:1004200090958095709561957F4F8F4F9F4F992341
:10043000A9F0F92F96E9BB279395F69587957795BF
:100440006795B795F111F8CFFAF4BB0F11F460FF7F
:100450001BC06F5F7F4F8F4F9F4F16C0882311F0D7
:1004600096E911C0772321F09EE8872F762F05C0EB
:10047000662371F096E8862F70E060E02AF09A9586
:10048000660F771F881FDAF7880F9695879597F97B
:10049000089597F99F6780E870E060E008959FEF06
:1004A00080EC089500240A9416161706180609060B
:1004B000089500240A9412161306140605060895DA
:1004C000092E0394000C11F4882352F0BB0F40F462
:1004D000BF2B11F460FF04C06F5F7F4F8F4F9F4FA2
:1004E000089557FD9058440F551F59F05F3F71F024
:1004F0004795880F97FB991F61F09F3F79F087958B
:100500000895121613061406551FF2CF4695F1DF13
:1005100008C0161617061806991FF1CF86957105A3
:10052000610508940895E894BB2766277727CB01D7
:0805300097F90895F894FFCF3C
:02053800FFFFC3
:00000001FF
